:100000000C942D000C94B5000C94B5000C94B50024
:100010000C94B5000C94B5000C94B5000C94B5008C
:100020000C94B5000C94B5000C94B5000C94B5007C
:100030000C94B5000C94B5000C94B5000C94B5006C
:100040000C94B5000C94B5000C94B5000C94B5005C
:100050000C94B50000600061800011241FBECFE544
:10006000D8E0DEBFCDBFE4E5F0E040E017C0B591D9
:10007000A59135912591059107FD0CC0959185912C
:10008000EF01F92FE82F05900D92A217B307D9F7CA
:10009000FE0104C01D92A217B307E1F7E935F4078A
:0E00A00031F70E9457000C945500F894FFCFE2
:1000AE000E949B00C1E080E00E94860081110AC080
:1000BE0086E00E948600811105C082E00E948600C3
:1000CE00882339F08C2F90916000911180E08093FD
:1000DE0060002FEF89E698E1215080409040E1F7D3
:1000EE0000C00000809160000E94A300809160001B
:0E00FE000E94A900809160000E94AF00D4CF44
:10010C00823051F0863029F0811109C096B391707C
:10011C0007C090B3907404C090B3947001C090E089
:0A012C0081E0911101C080E0089508
:10013600D39AA79AA29A8B9A8A988E98B898089575
:0C014600882311F0AA9A0895AA98089541
:0C015200882311F0AF9A0895AF9808952B
:0C015E00882311F0939A08959398089557
:04016A000C940000F1
:00000001FF
