:100000000C942A000C948A000C948A000C948A00A8
:100010000C948A000C948A000C948A000C948A0038
:100020000C948A000C948A000C948A000C948A0028
:100030000C948A000C948A000C948A000C948A0018
:100040000C948A000C948A000C948A000C948A0008
:100050000C948A0011241FBECFE5D8E0DEBFCDBFCF
:0C0060000E9436000C943400F894FFCF8E
:10006C000E947000C1E080E00E9458009C2F81111A
:10007C0001C090E0892F0E94780086E00E94580011
:10008C009C2F811101C090E0892F0E947E0082E09C
:10009C000E9458009C2F811101C090E0892F0E9472
:0400AC008400E1CF1C
:1000B000823061F0863031F081110CC096B39170BE
:1000C00096BB09C090B3907490BB05C090B3947078
:1000D00090BB01C090E081E0911101C080E00895E3
:1000E000D39AA79AA29A8B9A8A988E98B8980895CC
:0C00F000882311F0AA9A0895AA98089598
:0C00FC00882311F0AF9A0895AF98089582
:0C010800882311F0939A089593980895AD
:040114000C94000047
:00000001FF
